{
  "contractName": "DappTokenSale",
  "abi": [
    {
      "inputs": [
        {
          "internalType": "contract DappToken",
          "name": "_tokenContract",
          "type": "address"
        }
      ],
      "payable": false,
      "stateMutability": "nonpayable",
      "type": "constructor"
    },
    {
      "constant": true,
      "inputs": [],
      "name": "tokenContract",
      "outputs": [
        {
          "internalType": "contract DappToken",
          "name": "",
          "type": "address"
        }
      ],
      "payable": false,
      "stateMutability": "view",
      "type": "function"
    }
  ],
  "bytecode": "0x608060405234801561001057600080fd5b506040516101a43803806101a48339818101604052602081101561003357600080fd5b8101908080519060200190929190505050336000806101000a81548173ffffffffffffffffffffffffffffffffffffffff021916908373ffffffffffffffffffffffffffffffffffffffff16021790555080600160006101000a81548173ffffffffffffffffffffffffffffffffffffffff021916908373ffffffffffffffffffffffffffffffffffffffff1602179055505060d0806100d46000396000f3fe6080604052348015600f57600080fd5b506004361060285760003560e01c806355a373d614602d575b600080fd5b60336075565b604051808273ffffffffffffffffffffffffffffffffffffffff1673ffffffffffffffffffffffffffffffffffffffff16815260200191505060405180910390f35b600160009054906101000a900473ffffffffffffffffffffffffffffffffffffffff168156fea265627a7a72315820e98a583e49cfbca8946e26a20abed644eaeed712ae3cfb678d3541943bc8708864736f6c63430005100032",
  "source": "pragma solidity ^0.5.16;\n\nimport \"./DappToken.sol\";\n\ncontract DappTokenSale {\n\n    address admin;\n    DappToken public tokenContract;\n\n    constructor(DappToken _tokenContract) public{\n        //assign an admin\n        admin = msg.sender;\n        tokenContract= _tokenContract;\n   \n        //Token Contract\n        //Token Price\n        \n    }\n\n}",
  "sourcePath": "/home/humaid/Desktop/Code Your Own CryptoCurrency on Ethereum/token_sale/contracts/DappTokenSale.sol",
  "compiler": {
    "name": "solc",
    "version": "0.5.16+commit.9c3226ce.Emscripten.clang"
  },
  "schemaVersion": "3.4.1",
  "updatedAt": "2021-06-22T05:36:36.640Z",
  "networkType": "ethereum",
  "devdoc": {
    "methods": {}
  },
  "userdoc": {
    "methods": {}
  }
}